:1000000008308A00252F0000FF00030E8301A600A0
:100010007F08A5000A08AD008A01A50E0408A70004
:100020002008A8002108A9002208AA002308AB0084
:100030002408AC00831383128B1E20280B193D2843
:100040008B1D24280B183F288C308400801C2A2804
:100050008C184128270884002808A0002908A1003E
:100060002A08A2002B08A3002C08A4002D088A004F
:10007000260E8300FF0E7F0E09008A11CA298A11FD
:10008000F0298A111F2A0A108A100A118207AA343D
:100090006A345A345634553455349534A534A93419
:1000A000AA34603495349934943440345934A434A7
:1000B000553450346A3498346534A0349034A834BC
:1000C0006934A63464345434803458345634683433
:1000D00096349A34A5340A108A100A1182077234B1
:1000E00000345D34003473340034743400347534B7
:1000F00000347734003478340034793400347A347E
:1001000000347B3400347C3400347D340034763465
:1001100000347E340034E0340034E13400342034E0
:1001200001342134013422340134233401342434A1
:100130000134253401342634013427340134283481
:100140000134293401342A3401342B3401342C3461
:1001500001342D3401342E3401342F3401340A108B
:100160008A100A1182070D34003401340234043439
:1001700005340634083409340A340F340C340E3490
:10018000033407340B340A108A100A118207113421
:10019000153417343B3400341134153417343C34DF
:1001A00002341134103417343B3400341134103419
:1001B00017343C3402341234133417343B340434CF
:1001C0001234143417343B340534123412341734D7
:1001D0003B340634003400340034003400340A1058
:1001E0008A100A11F63E03188A0A820024341A344F
:1001F0001134123447342734343461349F348E340C
:1002000082349B348B3491340134003427349F344E
:100210008E3482349B348B349134633424343434BC
:100220001A34113410344634013400349F348E347F
:1002300082349B348B349134423400349F348E3476
:1002400082349B348B349134453400349F348E3463
:1002500082349B348B349134403400341134013473
:100260000034003400340034003400340A148A109E
:100270000A1182073F344234453448344B344E34FB
:100280005134543457345A345D345F3462346534F5
:10029000673469346C346E3470347234733475344A
:1002A0007734783479347A347B347C347D347D34DB
:1002B0007E347E347E347E347E347D347D347C34B2
:1002C0007B347A34793478347734753473347234D7
:1002D00070346E346C3469346734653462345F343E
:1002E0005D345A345734543451344E344B344834DA
:1002F000453442343F343C3439343634333430348A
:100300002D342A342734243421341F341C34193436
:1003100017341534123410340E340C340B340934C1
:100320000734063405340434033402340134013410
:100330000034003400340034003401340134023419
:100340000334043405340634073409340B340C34D4
:100350000E34103412341534173419341C341F344D
:100360002134243427342A342D3430343334363491
:1003700039343C340A148A100A1182075A3464341E
:100380006F347A340A148A100A1182079C34AE340E
:10039000C134D834EF080319CF29EF03DF29060E43
:1003A000A000A00C0730A005200807390317C800DB
:1003B000480872060313EE00DC141F30EF007008CB
:1003C00071040319E82970080319F103F003ED29FA
:1003D0005C150730F1002730F0000B118A112A2834
:1003E000051E0E2A611A0E2A05080F390F39A000C2
:1003F000F03061052004E100611661080F390A3C04
:10040000031D062AF0306105E1000E2A61080F394C
:10041000031D0E2AF03061050A38E100060EA00027
:10042000A00C0730A005200807390317C8004808AA
:1004300072060313EE00DC140B108A112A288316AF
:10044000E308031D2B2AE408031D2B2AFF30831227
:100450009500802A8316E3080319332A6308E50709
:100460000318E60A352AE601E501E40803193D2AE6
:100470006408E7070318E80A3F2AE801E701660C69
:1004800083120317CA0083160313650C8312031724
:10049000C900CA0CC90CCA0CC90C1F30CA054908CE
:1004A0007F390313A000A30120088316E900680C1C
:1004B00083120317CA0083160313670C83120317F2
:1004C000C900CA0CC90CCA0CC90C1F30CA0549089E
:1004D0007F390313A000A30120088316EA006908EE
:1004E00083123621A1000317C800831603136A087C
:1004F00083123621A1000317C8074808031395008B
:100500008C108A112A28A001A10103173C080310AE
:100510003D1C8D2A0313A00703170313A00CA10C85
:100520000317BD1C962A0313A00703170313A00C7F
:10053000A10C03173D1D9F2A0313A00703170313E4
:10054000A00CA10C0317BD1DA82A0313A0070317B5
:100550000313A00CA10C03173D1EB12A0313A0071F
:1005600003170313A00CA10C0317BD1EBA2A031313
:10057000A00703170313A00CA10C03173D1FC32AE8
:100580000313A00703170313A00CA10C0317BD1F2F
:10059000CC2A0313A00703170313A00CA10C0034EB
:1005A00003174408023C031DE32A41080313A30078
:1005B00003174008840083130313231883170317BA
:1005C00043088000352B42088D0083168C130C14D1
:1005D00083120C08C500C408031DFC2A410803133C
:1005E000A300031740088400831303132318831701
:1005F000031745088000352B440B352B41080313A6
:10060000A3000317400884008313031323188317E0
:100610000008031745020319352B41080313A300F3
:10062000031740088400831303132318831700085B
:100630000317C60042088D0046088C0083168C13F1
:100640000C15831203130B08A0008B1383160317DA
:1006500055308D00AA308D008C148C182D2B0C1168
:100660008312031320088B040317031300340317AA
:10067000BB01B6013608073C031CA02BB7013708A5
:10068000033C031C762B3608BC000530BD00031369
:1006900083220317370803132107C320A100031780
:1006A000B8003608BC000530BD00031383220317D1
:1006B0003708031321072E3EA100A3010318A30A44
:1006C00021080317BE00031323080317BF00C1004E
:1006D0003E08C0003B08C2003808C3003508C4000B
:1006E0000313D0220317BB0AB70A3F2B3608BC00FE
:1006F0000530BD000313832204302107C320A1006D
:100700000317BA003608BC000530BD00031383226E
:10071000043021072E3E0317BD00BE010318BE0A98
:100720003E08C1003D08C0003B08C2003A08C300B3
:100730003508C4000313D0220317BB0AB60A3A2BAC
:10074000B6013608073C031CE12BB7013708073C0C
:10075000031CDF2B360D0313A000A00DA00DF830F5
:10076000A0052008031737070313EF20A100031784
:10077000B900360D0313A000A00DA00DF830A005A0
:10078000200803173707A03E0313A100A301031895
:10079000A30A21080317BE00031323080317BF0091
:1007A000C1003E08C0003B08C2003908C30035083C
:1007B000C4000313D0220317BB0AB70AA62BB60A3C
:1007C000A12BC1017230C0003B08C200C301350833
:1007D000C4000313D0220317BB0AC1015D30C0005F
:1007E0003B08C2000630C3003508C4000313D02202
:1007F0000317BB0AC1017330C0003B08C2000630BA
:10080000C3003508C4000313D0220317BB0AC1017B
:100810007430C0003B08C2000730C3003508C40074
:100820000313D0220317BB0AC1017530C0003B0877
:10083000C2000330C3003508C4000313D0220317DD
:10084000BB0AC1017730C0003B08C2000830C300BA
:100850003508C4000313D0220317BB0AC101783046
:10086000C0003B08C2001F30C3003508C40003139A
:10087000D0220317BB0AC1017930C0003B08C20077
:100880000E30C3003508C4000313D0220317BB0A7F
:10089000C1017A30C0003B08C2000230C3003508F5
:1008A000C4000313D0220317BB0AC1017B30C00070
:1008B0003B08C2001B30C3003508C4000313D0221C
:1008C0000317BB0AC1017C30C0003B08C2000B30DB
:1008D000C3003508C4000313D0220317BB0AC101AB
:1008E0007D30C0003B08C2001130C3003508C40091
:1008F0000313D0220317BB0AC1017630C0003B08A6
:10090000C2000230C3003508C4000313D02203170D
:10091000BB0AC1017E30C0003B08C2000530C300E5
:100920003508C4000313D0220317BB0AC101E0300D
:10093000C0003B08C2000530C3003508C4000313E3
:10094000D0220317BB0AC101E130C0003B08C2003E
:100950000530C3003508C4000313D0220317BB0AB7
:10096000B60136080F3C031CCB2C20303607BC00E8
:100970000130BD000318BD0A3D08C1003C08C0009D
:100980003B08C200C3013508C4000313D02203177B
:10099000BB0AB60AB12C03130034ED08031DD42C96
:1009A0006C08623C0318E22C0317B6013608083CB9
:1009B000031CE12C62303607840083138001B60AE1
:1009C000D62C0313ED016230EC000034EF01F1018D
:1009D000F001DE0183160108C03907388100831257
:1009E0008101DC118B16E101F03056050D38D6007F
:1009F0005616D612F03057050938D7005716D712B9
:100A0000F03058050938D8005816D816D9010830E2
:100A1000DA008A156B2F0317430803135D050239AB
:100A20000317C500C610440845050319C61446102F
:100A3000440845050639031946144611C50803192B
:100A400046154408033C0318292D4619292DC61CB8
:100A50009F2D45192F2D461D4D2D431D4D2D031343
:100A600087100710071504300317C40003135D1D1A
:100A7000472D0317461C452D750803135D05DB0044
:100A800083166108E20083120317492D0313DB016B
:100A9000031703135C149E2D0317C518532D461D11
:100AA000712DC31C712D0313071107108714023019
:100AB0000317C4000313DD1C6B2D0317461C692D9F
:100AC000740803135D05DB0083166008E2008312DF
:100AD00003176D2D0313DB01031703135C149E2D05
:100AE00003174518772D461D952D431C952D03138F
:100AF00007118710071401300317C40003135D1C8E
:100B00008F2D0317C61C8D2D730803135D05DB00A5
:100B10007E088316E20083120317912D0313DB0175
:100B2000031703135C149E2D03170313071187107B
:100B300007100317C4010313DB015C14031703132D
:100B400000341F3083168500E0308600883087002F
:100B500083120712871207135C10061285128B1579
:100B6000E03003179604C30103130B258A156E2F7B
:100B70000317C1080319BF2D4008C300C42D031378
:100B80005B0803174004C30003135D1CCF2D03173C
:100B9000421043080139031D4214D12D03130317DA
:100BA00042104218D72D03130712D92D0317031330
:100BB0000716DD1CE32D0317421043080239031DFD
:100BC0004214E52D0313031742104218EB2D0313B3
:100BD0008712ED2D0317031387165D1DF72D0317DD
:100BE000421043080439031D4214F92D031303175F
:100BF00042104218FF2D03130713012E031703138E
:100C00000717003403173A083B02031C2A2E3A0840
:100C1000093C031C2A2E3E143A08BD003D083B0245
:100C2000031C292E62303D078400831300080F390E
:100C3000BC00BE1062303D0784008313001ABE144E
:100C40003C080C3C0319262EBE18272E3E10BD0A68
:100C50000E2E2B2E3E1000303E1801300313A10043
:100C6000003403173A080A3C031C492E62303A0745
:100C700084008313001E472E62303A0784008313DA
:100C800000080F390C3C0319472E3B14482E3B102B
:100C90004A2E3B1000303B1801300313A1000034F2
:100CA00046308400831700080319672E0230A10024
:100CB000BF30A0006400A00B5A2EA10B582E963016
:100CC000A000A00B612E642E6400800B562E003411
:100CD0008B120C3097000430831603179D000030F0
:100CE00083120313A10004389200FF308316920090
:100CF0008C1487118312003497019C0183168C1089
:100D000083128B1683168715831200340317C401D0
:100D10000B30C30083160313E3013830E400831261
:100D2000682603174408C500C50AC50303199E2E8B
:100D3000FF30C600031350260317952E4308C60044
:100D4000031350267C2646300317C6000313502693
:100D500000340317C4012330C30083160313E301D7
:100D60003830E4008312682603174408C500C50A1A
:100D7000C5030319C12EFF30C60003135026031705
:100D8000B82E4308C600031350267C2646300317AE
:100D9000C6000313502600340317C30103130B25A9
:100DA0000317400803134320A1000317C100C20129
:100DB0004208033C031CF22E4108C039403A031399
:100DC0000319E62EC03A0319E82EEA2E8626EB2EEA
:100DD000A926EB2EEB2E0317C10DC10DFC30C1056A
:100DE000C20AD82E4008093C031C012F4008043CCD
:100DF000031CFE2E0313A926002F031703138626B8
:100E00000317D230C60003135026003403174108DD
:100E10000F39203E840083170008831603139000C7
:100E20008312031741080F390313AF20A1000317E2
:100E3000C200420C0313A000A00C3F30A005200804
:100E40000339BA21A1008316E30083120317420875
:100E500003390313C221A1008316E40083128B110E
:100E60008316161283120317C30103130B2568267A
:100E70007D300317C600031350267C268B1583167E
:100E800016167D3083120317C600031350268316EF
:100E90009001831200340317B00803195C2F8316E6
:100EA0000313E2080319562FE2035A2F8312DB01C2
:100EB0005C14831683120317031300340317BD0851
:100EC0000319862F3C080F390313AF20A100031725
:100ED000BE003E0C0313A000A00C3F30A00520086C
:100EE0000339BA21A1008316E300831203173E08D9
:100EF00003390313C221A1008316E40083128B116E
:100F000083161612831268268C2F031703137C2670
:100F10008B15831616168312003403173908BC008C
:100F20000130BD0003135E2746300317C6000313CC
:100F300050260317BB010313051EB42F05080F39F4
:100F40000317BA003A080A3C031DA82FBA01AD2FB7
:100F5000BA08031DAD2F0A30BA0039083A02031D42
:100F6000B32F0130BB00031303173908BC00BD01C8
:100F700003135E270A300317C60003135026031716
:080F80003B080313A10000343B
:1010000063080F390317B00031100313631E0B2858
:101010000317311403130317B110031362080F39B8
:101020000D3C031D16280317B11403130317B20157
:10103000311CB02BB11CB02B3008F93E0318B02B7B
:10104000073E0313DF2BDE010D300317B200B02B78
:1010500064080F390317B300031365080F3903172A
:10106000B4000230BA000430BB008A110313022618
:101070008A150317B8100313211C41280317B8144D
:1010800003130317B81C2D293811330B0729B70197
:101090003708033C031CF52804303707B900BA00B1
:1010A0008A11031331268A15A1080319BD280317D5
:1010B000381004303707623E84008313001A381456
:1010C00004303707623E8400831300080F39B600EE
:1010D0003408BC000530BD008A11031383228A1531
:1010E00003173708031321072E3E840083130317C9
:1010F00036080F390313A000F030000520048000EB
:1011000003173408BC000530BD008A110313832285
:101110008A1503173708031321072E3EA100A301E8
:101120000318A30A21080317BC000313230803179D
:10113000BD003818A2283C08840083133D1883178B
:101140000012A8283C08840083133D18831700165A
:101150003408BC000530BD008A11031383228A15B0
:1011600003173708031321072E3E840083138012D0
:1011700003173708B500F328031303173408BC001E
:101180000530BD008A11031383228A15031737081F
:10119000031321072E3E84008313F03000058000E6
:1011A00003173408BC000530BD008A1103138322E5
:1011B0008A1503173708031321072E3E8400831373
:1011C000001203173408BC000530BD008A11031358
:1011D00083228A1503173708031321072E3E840044
:1011E000831380120317B70A48283408BC0005305F
:1011F000BD008A11031383228A15031735080313D0
:1012000021072E3E8400831380162B2903173308F1
:10121000023C031D29290430BA008A110313312628
:101220008A15A108031D1629031729290317340855
:10123000BC000530BD008A11031383228A150430D7
:1012400021072E3E8400831366080F3980002B2966
:101250000317381503132F2903173815031300300C
:101260000317381901300313A100A10803193C2901
:101270000317B2013F29031319300317B200B02B33
:1012800064080F390317B300031365080F390317F8
:10129000B400031366080F390F390317B5000313A1
:1012A00067080F390F390317B6000230BA0006304D
:1012B000BB008A11031302268A15A1080319962977
:1012C00003173710031368080F390317B600031309
:1012D00067080F390317B900BC000A30BD008A1136
:1012E000031383228A1521080317B6070313660820
:1012F0000F390317B900BC006430BD008A11031315
:1013000083228A1521080317B607330D0313A000A3
:10131000A00DA00DF830A005200803173407A03E4B
:101320008400831336088000D22903130230031788
:10133000BA000530BB008A11031302268A15A108E2
:101340000319D02903173710330D0313A000A00D84
:10135000A00DF830A005200803173407A03E840034
:101360008313350EF0390313A0000F30000520045D
:1013700080000317330D0313A000A00DA00DF8305B
:10138000A005200803173407A03E84008313360805
:101390000F390313A000F030000520048000D3298A
:1013A00003173714031300300317371801300313E2
:1013B000A100A1080319E0290317B201E3290313CF
:1013C00012300317B200B02B02300317BA008A1193
:1013D000031331268A15031733100313211CF32935
:1013E00003173314031364080F390317B400331CB5
:1013F000062A3408023C031C062AB3103408B50040
:101400008A11031337238A15082A0317B314031309
:1014100000300317B31801300313A100A10803190A
:10142000152A0317B201182A03131C300317B20040
:10143000B02B0317B810031364080F390317BA0051
:10144000BC000A30BD008A11031383228A152108CB
:101450000317B300031365080F390317B3070630EA
:10146000BA008A11031331268A15A1080319602ACC
:1014700066080F390317B700370B412A6430B400F0
:101480004A2A3708023C031D482AC830B4004A2AB9
:10149000B401B814031367080F390317BA00BC006E
:1014A0000A30BD008A11031383228A15210803170D
:1014B000B407031368080F390317B407732A03131B
:1014C00066080F390317BA00BC000A30BD008A1144
:1014D000031383228A1521080317B4000313670836
:1014E0000F390317B4070230BA000530BB008A1168
:1014F000031302268A15031738100313211C832AAD
:101500000317381403130317381CB12A33083F3C60
:10151000031CAF2A0310330D03130317B900390A54
:101520008A1103136B208A15A300031739088A1147
:1015300003136B208A150317B50003132308031741
:10154000B60036080313A30003173508840083137D
:10155000031323188317031734088000B02AB81424
:10156000B22AB8140030B81801300313A100A10842
:101570000319BE2A0317B201C12A03131B30031734
:10158000B200B02B64080F3907390317B3000313F7
:1015900065080F3907390317B400031366080F39BC
:1015A00007390317B5000230BA000430BB008A11B6
:1015B000031302268A15031739100313211CE32A8B
:1015C0000317391403130317391C992BB910330867
:1015D000013A03130319F32A033A0319082B013ABA
:1015E0000319192B4C2B03173408BC000530BD0020
:1015F0008A11031383228A15031735080313210761
:101600002E3E8400831300080F390317B6004F2BBA
:101610000317340D0313A000A00DA00DF830A00592
:10162000200803173507A03E840083130008B60086
:101630004F2B65080F390317BB00BC000A30BD00F3
:101640008A11031383228A1521080317B400031398
:1016500066080F390317B40734083F3C031C492BB5
:101660000310340D03130317BA003A0A8A11031347
:101670006B208A15A30003173A088A1103136B2005
:101680008A15840083132318831700080317B600F4
:101690004A2BB9144F2B03130317B6014F2BB6086F
:1016A0000319982B7608C0000130C1008A1103137A
:1016B000B8258A1503300317BA00FA30C6008A111C
:1016C000031350268A150317BA0B5D2B3608F03921
:1016D0000313A000200E0317B7000F30B705B7089B
:1016E0000319802B3708C0008A110313CC268A15F2
:1016F000D2300317C6008A11031350268A15031728
:1017000036080F39B8003808C0008A110313CC26F8
:101710008A15FA300317C6008A11031350268A155A
:101720000317C001C1018A110313B8258A150317D5
:101730009A2BB9140030B91801300313A100A10885
:101740000319A62B0317B201A92B03130E3003179D
:10175000B200B02BDC150C300317B200B02B03170E
:10176000B2080319DC2B7608C0000130C1008A11D1
:101770000313B8258A1503300317B300FA30C600E7
:101780008A11031350268A150317B30BBE2B320898
:10179000C0008A110313CC268A15FA300317C6003D
:1017A0008A11031350268A150317C001C1018A113B
:1017B0000313B8258A15031703138A15BA2F0A14C1
:1017C0008A140A118207232828284029E429192A83
:1017D000C22AAA2B0317B0013008083C031C012EB3
:1017E0003215B1013108033C031CFF2D321DFF2DC2
:1017F0003008BC000530BD008A11031383228A150E
:1018000003173108031321072E3E840083130008B9
:101810000F390317B40062303107840083130008C6
:101820000F39B500B2113008BC000530BD008A1177
:10183000031383228A1503173108031321072E3E51
:1018400084008313001E272C0317B21503130317FC
:1018500032126230310784008313001A3216B2123A
:101860003008BC000530BD008A11031383228A159D
:1018700003173108031321072E3E84008313801EB3
:10188000442C0317B2160313031732103408350221
:1018900003193214B2100313A0010317B21D532C05
:1018A0000313201603173208031320061039031DF3
:1018B0005C2C0317B214031303173218602C321177
:1018C000321DFD2DB21CFD2DB21EFD2D3008BC00B9
:1018D0000530BD008A11031383228A1504302107C5
:1018E0002E3E8400831300080317B3003308083A20
:1018F0000313031DA72C0130DE0076080317C00078
:101900000130C1008A110313B8258A15033003176B
:10191000B600FA30C6008A11031350268A15031741
:10192000B60B892C1930C0008A110313CC268A15F6
:101930000317C001C1018A110313B8258A15FA30B3
:101940000317C6008A11031350268A15F92D063095
:101950000317B600FA30C6008A11031350268A1501
:101960000317B60BAA2C3308B600360807390F390F
:101970000313A000F0305F052004DF005F16E001D4
:101980000317BA0103135F1EF82D0317B7010313E2
:10199000E00103173708073C031CE92D03135F1A06
:1019A000D32C0317E92D5F080F39A000A00DA00D5F
:1019B000A00DF830A005200803173707A03E8400CB
:1019C000831300080313A000200E0F390317B8007B
:1019D000B81DFF2C0830B80003135F080F39A000B2
:1019E000A00DA00DA00DF830A005200803173707A3
:1019F000A03E8400831300083F39B900112D031362
:101A00005F080F39A000A00DA00DA00DF830A005B3
:101A1000200803173707A03E8400831300080F39FE
:101A2000B9003808BB003908BC003B080F39031364
:101A3000A000200E0317BF00F030BF053C08073997
:101A4000BD003F08031303193E2D103A0319432D1F
:101A5000903A0319682DB03A03197F2D103A0319F3
:101A6000A32D603A0319AF2D103A0319B42D303A63
:101A70000319D72D103A0319E32DE62DF0305F0539
:101A8000DF005F12E62D76080317C0000130C100A9
:101A90008A110313B8258A1503300317C000FA30E2
:101AA000C6008A11031350268A150317C00B4F2D49
:101AB0003C080F39C000C1008A11031306278A159C
:101AC000FA300317C6008A11031350268A15E62D33
:101AD00076080317C0000130C1008A110313B8252E
:101AE0008A1503173C08243C031C7D2D3C08C000CC
:101AF0008A110313CC268A1503170313E62D031747
:101B0000BC1D892DC001C1018A110313B8258A1596
:101B100003173C0807390313A000200D0317BD006D
:101B2000BD0DFC30BD05BE013D083E020318A12DD0
:101B3000FA30C6008A11031350268A150317BE0A0D
:101B4000942D0313E62D03173D08F6007608C00018
:101B50000130C1008A110313B8258A15E62D031739
:101B60003D080313DD00E62D76080317C0000130A1
:101B7000C1008A110313B8258A1503300317C0006A
:101B8000FA30C6008A11031350268A150317C00BBA
:101B9000C02D3D08C1008A11031306278A15FA30AB
:101BA0000317C6008A11031350268A15E62D5F120B
:101BB00003173D080F390313A000F030600520041F
:101BC000E0006016E62D0130DE00E62D0317B70AAF
:101BD000CA2CBA0A0313601EF72D03173A08033CF8
:101BE0000318F42D0313F72D03136008DF00C32C33
:101BF000F92D8A11CD248A150317B10AF22BB00AE8
:101C0000EC2B00300313A1008A15BC2F0317B00181
:101C1000B10131080F3C031C192F3108B200C0017B
:101C20000130C1008A110313B8258A150317C301B7
:101C30008A1103130B258A150317B4013408B30066
:101C4000B801C0010130C1008A110313B8258A15FB
:101C5000061285120317B8013711B601B80138080A
:101C60000F3C031C662E3719622EB609B60A3608D9
:101C70001F39831603139000831203173208B9002B
:101C80008A1103138D278A15A10803194B2E0317F8
:101C90003715622E0313013003173607003CB600D8
:101CA00036081F3983160313900083120317320876
:101CB000B9008A1103138D278A15A1080319632E11
:101CC0000317371503130317B80A2F2E371D6C2E71
:101CD0003608B50037146E2EB501371037113508A8
:101CE000B6003719932E371C932E03130616851250
:101CF00003173608B300B60336081F3983160313DB
:101D00009000831203173719922E3208B9008A11F6
:101D100003138D278A15A1080319902E0317922EFD
:101D200003173715712E37113508B6003719B82E3D
:101D3000371CB82E03130612851603173608B40095
:101D4000B60A36081F39831603139000831203174F
:101D50003719B72E3208B9008A1103138D278A1557
:101D6000A1080319B52E0317B72E03173715962EA2
:101D7000371CFE2E203032078400831733083407C7
:101D8000BC003C08BD000230BE003D083E06803964
:101D9000C000BD1FCD2EBD09BD0ABE1FD12EBE097C
:101DA000BE0A3E080313A10103173D020318DD2EEE
:101DB0003D080313A000F02E03170313A001083001
:101DC0000317BF00BD0D0313A00D03173E08031337
:101DD00020020318A000A10D0317BF0BE22E03136E
:101DE0000317C01FF72E0313A109A10A031703133A
:101DF00021081F3980000317B714042F2030320741
:101E0000840083178001B710831603139001831297
:101E10000612851200300317B71801300313A10012
:101E2000A1080319162F0317B00A03130317B10AE9
:101E3000092E3008103C031D212F03138516232F74
:101E40000317031385128A15F82F840183131F309B
:101E50008305713083168F000F08831203171F103C
:101E60009F101F119F1103131F13003003179E00B3
:101E700099019A0183169E0183129B0103138D120F
:101E80008316E301E401E501E601E701E8018312BD
:101E900003178D0183168C130C1483120C08FF3C5E
:101EA000031D5A2F0230B5008A11031337238A15F8
:101EB0005F2F0317B5018A11031337238A15C0302A
:101EC0008B048B158316161690018A118312CD246C
:101ED0008A158A11E62C8A158A11A12D8A15DC1C17
:101EE0007F2F6E080317C3008A1103130B258A1571
:101EF000DC10EE08031D7F2F8A11CD248A155C1C8F
:101F0000892F0317C001C1018A110313B8258A154F
:101F10005C10611EC42FED08031DA82F6C086B3CDC
:101F2000031CA82F6C08840083136D1883176108A5
:101F30000F390F39A000F0300005200480006C0834
:101F4000840083136D1883170016EC0A0319ED0A39
:101F50006112DE080319BB2F61080F390B3C031D0A
:101F6000B42F8A11CD248A1561080F390C3C031D4A
:101F7000BA2F0028BC2FEA2B61080F390B3C031D38
:101F8000C42F8A11CD248A155C1DE82F5C116E1DAB
:101F9000D32F8316610883120317B0008A1103132D
:101FA0004B278A15E82FEE1CDF2F8316600883125B
:101FB0000317B0008A1103134B278A15E82F6E1CF4
:101FC000E82F7E080317B0008A1103134B278A15E8
:101FD000DC1DF92F05300317B000FA30C6008A1156
:101FE000031350268A150317B00BED2F0313062E8B
:061FF000DC116F2F6300FD
:02400E00D430AC
:00000001FF
;PIC16F690
